{
  "contractName": "TokenFarm",
  "abi": [
    {
      "constant": true,
      "inputs": [],
      "name": "name",
      "outputs": [
        {
          "name": "",
          "type": "string"
        }
      ],
      "payable": false,
      "stateMutability": "view",
      "type": "function",
      "signature": "0x06fdde03"
    },
    {
      "constant": true,
      "inputs": [
        {
          "name": "",
          "type": "address"
        }
      ],
      "name": "stakingBalance",
      "outputs": [
        {
          "name": "",
          "type": "uint256"
        }
      ],
      "payable": false,
      "stateMutability": "view",
      "type": "function",
      "signature": "0x45bc78ab"
    },
    {
      "constant": true,
      "inputs": [],
      "name": "dappToken",
      "outputs": [
        {
          "name": "",
          "type": "address"
        }
      ],
      "payable": false,
      "stateMutability": "view",
      "type": "function",
      "signature": "0x5eb186f8"
    },
    {
      "constant": true,
      "inputs": [
        {
          "name": "",
          "type": "address"
        }
      ],
      "name": "isStaking",
      "outputs": [
        {
          "name": "",
          "type": "bool"
        }
      ],
      "payable": false,
      "stateMutability": "view",
      "type": "function",
      "signature": "0x6f49712b"
    },
    {
      "constant": true,
      "inputs": [],
      "name": "owner",
      "outputs": [
        {
          "name": "",
          "type": "address"
        }
      ],
      "payable": false,
      "stateMutability": "view",
      "type": "function",
      "signature": "0x8da5cb5b"
    },
    {
      "constant": true,
      "inputs": [],
      "name": "daiToken",
      "outputs": [
        {
          "name": "",
          "type": "address"
        }
      ],
      "payable": false,
      "stateMutability": "view",
      "type": "function",
      "signature": "0xbe22f546"
    },
    {
      "constant": true,
      "inputs": [
        {
          "name": "",
          "type": "address"
        }
      ],
      "name": "hasStaked",
      "outputs": [
        {
          "name": "",
          "type": "bool"
        }
      ],
      "payable": false,
      "stateMutability": "view",
      "type": "function",
      "signature": "0xc93c8f34"
    },
    {
      "constant": true,
      "inputs": [
        {
          "name": "",
          "type": "uint256"
        }
      ],
      "name": "stakers",
      "outputs": [
        {
          "name": "",
          "type": "address"
        }
      ],
      "payable": false,
      "stateMutability": "view",
      "type": "function",
      "signature": "0xfd5e6dd1"
    },
    {
      "inputs": [
        {
          "name": "_dappToken",
          "type": "address"
        },
        {
          "name": "_daiToken",
          "type": "address"
        }
      ],
      "payable": false,
      "stateMutability": "nonpayable",
      "type": "constructor",
      "signature": "constructor"
    },
    {
      "constant": false,
      "inputs": [
        {
          "name": "_amount",
          "type": "uint256"
        }
      ],
      "name": "stakeTokens",
      "outputs": [],
      "payable": false,
      "stateMutability": "nonpayable",
      "type": "function",
      "signature": "0x7547c7a3"
    },
    {
      "constant": false,
      "inputs": [
        {
          "name": "_amount",
          "type": "uint256"
        }
      ],
      "name": "unStakeTokens",
      "outputs": [],
      "payable": false,
      "stateMutability": "nonpayable",
      "type": "function",
      "signature": "0x74276866"
    },
    {
      "constant": false,
      "inputs": [],
      "name": "issueTokens",
      "outputs": [],
      "payable": false,
      "stateMutability": "nonpayable",
      "type": "function",
      "signature": "0x60ab5852"
    }
  ],
  "bytecode": "0x60806040526040805190810160405280600f81526020017f4441707020546f6b656e204661726d0000000000000000000000000000000000815250600190805190602001906200005192919062000166565b503480156200005f57600080fd5b50604051604080620013a3833981018060405260408110156200008157600080fd5b81019080805190602001909291908051906020019092919050505081600260006101000a81548173ffffffffffffffffffffffffffffffffffffffff021916908373ffffffffffffffffffffffffffffffffffffffff16021790555080600360006101000a81548173ffffffffffffffffffffffffffffffffffffffff021916908373ffffffffffffffffffffffffffffffffffffffff160217905550336000806101000a81548173ffffffffffffffffffffffffffffffffffffffff021916908373ffffffffffffffffffffffffffffffffffffffff160217905550505062000215565b828054600181600116156101000203166002900490600052602060002090601f016020900481019282601f10620001a957805160ff1916838001178555620001da565b82800160010185558215620001da579182015b82811115620001d9578251825591602001919060010190620001bc565b5b509050620001e99190620001ed565b5090565b6200021291905b808211156200020e576000816000905550600101620001f4565b5090565b90565b61117e80620002256000396000f3fe6080604052600436106100af576000357c0100000000000000000000000000000000000000000000000000000000900463ffffffff16806306fdde03146100b457806345bc78ab146101445780635eb186f8146101a957806360ab5852146102005780636f49712b1461021757806374276866146102805780637547c7a3146102bb5780638da5cb5b146102f6578063be22f5461461034d578063c93c8f34146103a4578063fd5e6dd11461040d575b600080fd5b3480156100c057600080fd5b506100c9610488565b6040518080602001828103825283818151815260200191508051906020019080838360005b838110156101095780820151818401526020810190506100ee565b50505050905090810190601f1680156101365780820380516001836020036101000a031916815260200191505b509250505060405180910390f35b34801561015057600080fd5b506101936004803603602081101561016757600080fd5b81019080803573ffffffffffffffffffffffffffffffffffffffff169060200190929190505050610526565b6040518082815260200191505060405180910390f35b3480156101b557600080fd5b506101be61053e565b604051808273ffffffffffffffffffffffffffffffffffffffff1673ffffffffffffffffffffffffffffffffffffffff16815260200191505060405180910390f35b34801561020c57600080fd5b50610215610564565b005b34801561022357600080fd5b506102666004803603602081101561023a57600080fd5b81019080803573ffffffffffffffffffffffffffffffffffffffff1690602001909291905050506107ec565b604051808215151515815260200191505060405180910390f35b34801561028c57600080fd5b506102b9600480360360208110156102a357600080fd5b810190808035906020019092919050505061080c565b005b3480156102c757600080fd5b506102f4600480360360208110156102de57600080fd5b8101908080359060200190929190505050610c09565b005b34801561030257600080fd5b5061030b6110a9565b604051808273ffffffffffffffffffffffffffffffffffffffff1673ffffffffffffffffffffffffffffffffffffffff16815260200191505060405180910390f35b34801561035957600080fd5b506103626110ce565b604051808273ffffffffffffffffffffffffffffffffffffffff1673ffffffffffffffffffffffffffffffffffffffff16815260200191505060405180910390f35b3480156103b057600080fd5b506103f3600480360360208110156103c757600080fd5b81019080803573ffffffffffffffffffffffffffffffffffffffff1690602001909291905050506110f4565b604051808215151515815260200191505060405180910390f35b34801561041957600080fd5b506104466004803603602081101561043057600080fd5b8101908080359060200190929190505050611114565b604051808273ffffffffffffffffffffffffffffffffffffffff1673ffffffffffffffffffffffffffffffffffffffff16815260200191505060405180910390f35b60018054600181600116156101000203166002900480601f01602080910402602001604051908101604052809291908181526020018280546001816001161561010002031660029004801561051e5780601f106104f35761010080835404028352916020019161051e565b820191906000526020600020905b81548152906001019060200180831161050157829003601f168201915b505050505081565b60056020528060005260406000206000915090505481565b600260009054906101000a900473ffffffffffffffffffffffffffffffffffffffff1681565b3373ffffffffffffffffffffffffffffffffffffffff166000809054906101000a900473ffffffffffffffffffffffffffffffffffffffff1673ffffffffffffffffffffffffffffffffffffffff16141515610628576040517f08c379a000000000000000000000000000000000000000000000000000000000815260040180806020018281038252601f8152602001807f4f6e6c7920746865206f776e65722063616e20697373756520546f6b656e730081525060200191505060405180910390fd5b60008090505b6004805490508110156107e957600060048281548110151561064c57fe5b9060005260206000200160009054906101000a900473ffffffffffffffffffffffffffffffffffffffff1690506000600560008373ffffffffffffffffffffffffffffffffffffffff1673ffffffffffffffffffffffffffffffffffffffff1681526020019081526020016000205490506000600a905060008211156107d957600260009054906101000a900473ffffffffffffffffffffffffffffffffffffffff1673ffffffffffffffffffffffffffffffffffffffff1663a9059cbb84838581151561071657fe5b046040518363ffffffff167c0100000000000000000000000000000000000000000000000000000000028152600401808373ffffffffffffffffffffffffffffffffffffffff1673ffffffffffffffffffffffffffffffffffffffff16815260200182815260200192505050602060405180830381600087803b15801561079c57600080fd5b505af11580156107b0573d6000803e3d6000fd5b505050506040513d60208110156107c657600080fd5b8101908080519060200190929190505050505b505050808060010191505061062e565b50565b60076020528060005260406000206000915054906101000a900460ff1681565b600081111515610884576040517f08c379a00000000000000000000000000000000000000000000000000000000081526004018080602001828103825260128152602001807f616d6f756e742063616e6e6f742062652030000000000000000000000000000081525060200191505060405180910390fd5b6000600560003373ffffffffffffffffffffffffffffffffffffffff1673ffffffffffffffffffffffffffffffffffffffff168152602001908152602001600020549050600081111515610940576040517f08c379a000000000000000000000000000000000000000000000000000000000815260040180806020018281038252601b8152602001807f7374616b696e672062616c616e63652063616e6e6f742062652030000000000081525060200191505060405180910390fd5b8082111515156109de576040517f08c379a00000000000000000000000000000000000000000000000000000000081526004018080602001828103825260228152602001807f63616e6e6f7420756e7374616b65206d6f7265207468616e206465706f73697481526020017f656400000000000000000000000000000000000000000000000000000000000081525060400191505060405180910390fd5b81600560003373ffffffffffffffffffffffffffffffffffffffff1673ffffffffffffffffffffffffffffffffffffffff1681526020019081526020016000205403600560003373ffffffffffffffffffffffffffffffffffffffff1673ffffffffffffffffffffffffffffffffffffffff16815260200190815260200160002081905550600360009054906101000a900473ffffffffffffffffffffffffffffffffffffffff1673ffffffffffffffffffffffffffffffffffffffff1663a9059cbb33846040518363ffffffff167c0100000000000000000000000000000000000000000000000000000000028152600401808373ffffffffffffffffffffffffffffffffffffffff1673ffffffffffffffffffffffffffffffffffffffff16815260200182815260200192505050602060405180830381600087803b158015610b2857600080fd5b505af1158015610b3c573d6000803e3d6000fd5b505050506040513d6020811015610b5257600080fd5b8101908080519060200190929190505050506000600560003373ffffffffffffffffffffffffffffffffffffffff1673ffffffffffffffffffffffffffffffffffffffff168152602001908152602001600020541415610c05576000600760003373ffffffffffffffffffffffffffffffffffffffff1673ffffffffffffffffffffffffffffffffffffffff16815260200190815260200160002060006101000a81548160ff0219169083151502179055505b5050565b600081111515610c81576040517f08c379a00000000000000000000000000000000000000000000000000000000081526004018080602001828103825260128152602001807f616d6f756e742063616e6e6f742062652030000000000000000000000000000081525060200191505060405180910390fd5b600360009054906101000a900473ffffffffffffffffffffffffffffffffffffffff1673ffffffffffffffffffffffffffffffffffffffff1663095ea7b333836040518363ffffffff167c0100000000000000000000000000000000000000000000000000000000028152600401808373ffffffffffffffffffffffffffffffffffffffff1673ffffffffffffffffffffffffffffffffffffffff16815260200182815260200192505050602060405180830381600087803b158015610d4657600080fd5b505af1158015610d5a573d6000803e3d6000fd5b505050506040513d6020811015610d7057600080fd5b810190808051906020019092919050505050600360009054906101000a900473ffffffffffffffffffffffffffffffffffffffff1673ffffffffffffffffffffffffffffffffffffffff166323b872dd3330846040518463ffffffff167c0100000000000000000000000000000000000000000000000000000000028152600401808473ffffffffffffffffffffffffffffffffffffffff1673ffffffffffffffffffffffffffffffffffffffff1681526020018373ffffffffffffffffffffffffffffffffffffffff1673ffffffffffffffffffffffffffffffffffffffff1681526020018281526020019350505050602060405180830381600087803b158015610e7b57600080fd5b505af1158015610e8f573d6000803e3d6000fd5b505050506040513d6020811015610ea557600080fd5b81019080805190602001909291905050505080600560003373ffffffffffffffffffffffffffffffffffffffff1673ffffffffffffffffffffffffffffffffffffffff1681526020019081526020016000205401600560003373ffffffffffffffffffffffffffffffffffffffff1673ffffffffffffffffffffffffffffffffffffffff16815260200190815260200160002081905550600660003373ffffffffffffffffffffffffffffffffffffffff1673ffffffffffffffffffffffffffffffffffffffff16815260200190815260200160002060009054906101000a900460ff161515610ff65760043390806001815401808255809150509060018203906000526020600020016000909192909190916101000a81548173ffffffffffffffffffffffffffffffffffffffff021916908373ffffffffffffffffffffffffffffffffffffffff160217905550505b6001600660003373ffffffffffffffffffffffffffffffffffffffff1673ffffffffffffffffffffffffffffffffffffffff16815260200190815260200160002060006101000a81548160ff0219169083151502179055506001600760003373ffffffffffffffffffffffffffffffffffffffff1673ffffffffffffffffffffffffffffffffffffffff16815260200190815260200160002060006101000a81548160ff02191690831515021790555050565b6000809054906101000a900473ffffffffffffffffffffffffffffffffffffffff1681565b600360009054906101000a900473ffffffffffffffffffffffffffffffffffffffff1681565b60066020528060005260406000206000915054906101000a900460ff1681565b60048181548110151561112357fe5b906000526020600020016000915054906101000a900473ffffffffffffffffffffffffffffffffffffffff168156fea165627a7a723058208709cf76c3744812a04e54000a52944810bc70f0806f3fca73335f41081256f50029",
  "source": "pragma solidity ^0.5.0;\n\nimport './DappToken.sol';\nimport './DaiToken.sol';\n\n\n\n/* Should use safemath */\ncontract TokenFarm {\n\n\taddress public owner; \n\tstring public name = \"DApp Token Farm\";\n\n\n\tDappToken public dappToken;\n\tDaiToken public daiToken;\n\n\taddress[] public stakers;\n\tmapping(address => uint) public stakingBalance;\n\tmapping(address => bool) public hasStaked;\n\tmapping(address => bool) public isStaking;\n\n\tconstructor (DappToken _dappToken, DaiToken _daiToken) public {\n\t\tdappToken = _dappToken;\n\t\tdaiToken = _daiToken;\n\n\t\towner = msg.sender;\n\t}\n\n\t// 1. Staking Tokens (Deposit)\n\tfunction stakeTokens(uint _amount) public {\n\t\t\n\t\t// cant stake 0 tokens\n\t\trequire(_amount > 0, \"amount cannot be 0\");\n\t\t// Let Investor approve staking\n\t\tdaiToken.approve(msg.sender, _amount);\n\t\t// Transfer tokens to be staked to contract\n\t\tdaiToken.transferFrom(msg.sender, address(this), _amount);\n\t\t// Update Staking Balance within App\n\t\tstakingBalance[msg.sender] = stakingBalance[msg.sender] + _amount;\n\t\t// Log investor in as having staked\n\t\t\n\t\tif(!hasStaked[msg.sender]) {\n\t\t\tstakers.push(msg.sender);\n\t\t}\n\n\t\thasStaked[msg.sender] = true;\n\t\tisStaking[msg.sender] = true;\n\t\t\n\t}\n\n\t// 2. Unstaking Tokens (Withdraw)\n\tfunction unStakeTokens(uint _amount) public {\n\t\t// cant stake 0 tokens\n\t\trequire(_amount > 0, \"amount cannot be 0\");\n\n\t\tuint balance = stakingBalance[msg.sender];\n\t\trequire(balance > 0, \"staking balance cannot be 0\");\n\t\trequire(_amount <= balance, \"cannot unstake more than deposited\");\n\t\t// Withdraw Token from Contract\n\t\tstakingBalance[msg.sender] = stakingBalance[msg.sender] - _amount;\n\t\tdaiToken.transfer(msg.sender, _amount);\n\t\t\n\t\t// change status if deposited complete balance\n\t\tif(stakingBalance[msg.sender] == 0) {\n\t\t\tisStaking[msg.sender] = false;\n\t\t}\n\t}\n\n\t// 3. Issunig Tokens (Reward)\n\tfunction issueTokens() public {\n\n\t\trequire(owner == msg.sender, \"Only the owner can issue Tokens\");\n\n\t\tfor(uint i = 0; i < stakers.length; i ++ ){\n\t\t\taddress recipient = stakers[i];\n\t\t\tuint balance = stakingBalance[recipient];\n\t\t\tuint interestRate = 10; // fraction to be rewarded\n\t\t\t// issue Tokens respective to staked balance\n\t\t\tif(balance >0) {\n\t\t\t\tdappToken.transfer(recipient, balance/interestRate);\n\t\t\t}\n\t\t}\n\t}\n\n}",
  "sourcePath": "/Users/gerrit/Documents/05_Learning/05_Blockchain/03_DeFi_Staking/defi_tutorial/src/contracts/TokenFarm.sol",
  "compiler": {
    "name": "solc",
    "version": "0.5.0+commit.1d4f565a.Emscripten.clang"
  },
  "schemaVersion": "3.0.2",
  "updatedAt": "2021-05-10T17:15:26.222Z",
  "devdoc": {
    "methods": {}
  },
  "userdoc": {
    "methods": {}
  }
}